:1000000000200020A9040000D5040000D504000051
:10001000D5040000D5040000D5040000D50400007C
:10002000D5040000D5040000D5040000D50400006C
:10003000D5040000D5040000D50400000104000030
:10004000D5040000D5040000D5040000D50400004C
:10005000D5040000D5040000D5040000D50400003C
:10006000D5040000D5040000D5040000D50400002C
:10007000D5040000D5040000D5040000D50400001C
:10008000D5040000D5040000D5040000D50400000C
:10009000D5040000054B0648033310B51B1A062B88
:1000A00003D9044B002B00D0984710BD80000020DE
:1000B00080000020000000000648074910B5091A1A
:1000C0008910CB0F5918491003D0044B002B00D0D6
:1000D000984710BD80000020800000200000000034
:1000E00010B5074C2378002B09D1FFF7D3FF054B40
:1000F000002B02D0044800E000BF0123237010BD94
:100100008000002000000000C42D0000094B10B545
:10011000002B03D00849094800E000BF08480368E5
:10012000002B02D1FFF7C8FF10BD064B002BF9D002
:100130009847F7E70000000084000020C42D00006D
:100140007C00002000000000144B002B00D1124B5B
:100150009D46402292029A1A924600218B460F46F3
:100160001148124A121A00F09DFF0D4B002B00D0CF
:1001700098470C4B002B00D098470020002104002A
:100180000D000B4800F032FF00F068FF200029004E
:1001900000F052F900F032FF0000080000200020BB
:1001A000000000000000000080000020400100204E
:1001B0002910000030B583B0020000916B46073370
:1001C0001A706B4607331B787F2B36D9324C6B463F
:1001D00007331B781A000F231340083B99082E4A57
:1001E0006B4607331B7818000F230340083B9B081E
:1001F00006339B00D31804331B686A460732127813
:10020000100003220240D200FF2090400200D2439F
:100210001A40009B9B01FF2018406B4607331B7858
:100220001D0003232B40DB00984003001A438B1D65
:100230009B00E31804331A602BE0184C6B4607331D
:100240001B785BB29B0815496A460732127852B296
:100250009208C03292005258694607310978080066
:1002600003210140C900FF2088400100C94311401B
:10027000009A9201FF2010406A460732127815005A
:1002800003222A40D200904002000A43C0339B0060
:100290001A51C04603B030BD00ED00E000E100E0BF
:1002A00000B583B00190019B013B0C4A934201D9F8
:1002B000012310E00A4B019A013A5A6001235B4284
:1002C00003211800FFF776FF054B00229A60044BCC
:1002D00007221A600023180003B000BDFFFFFF00D3
:1002E00010E000E0024BDB6C1B0EDBB21800704725
:1002F000B081E00F82B0020000916B4607331A70A4
:100300006B4607331B78002B11D06B4607331B78E5
:10031000012B0CD06B4607331B78022B07D06B46A2
:1003200007331B78032B02D06B4607331B78094930
:100330006B4607331A780120009B98400300180091
:100340001300DB009B189B00CB1810331860C046CD
:1003500002B070470060004082B0020000916B461E
:1003600007331A706B4607331B78002B11D06B468E
:1003700007331B78012B0CD06B4607331B78022BFD
:1003800007D06B4607331B78032B02D06B4607332D
:100390001B7809496B4607331A780120009B984067
:1003A000030018001300DB009B189B00CB181833C8
:1003B0001860C04602B070470060004010B582B0BF
:1003C0006B46DC1DFFF78EFF030023706B4607337F
:1003D0001B78812B08D8064B064A1A60064B064A42
:1003E000126806490A401A60C04602B010BDC046F5
:1003F00018600C4005000004E4800C40FFFFFFFE85
:10040000034B1B685A1C024B1A60C0467047C0461B
:100410003801002084B00190064B1B680393C0464E
:10042000044B1A68039BD21A019B9A42F8D3C04628
:1004300004B070473801002010B5FFF7BFFF174B1D
:100440000121180000F050FA154B180000F0A4FA32
:100450000200FA239900100000F03CFD0300180090
:10046000FFF71EFF031E00D0FEE700230422042135
:10047000002000F07DFC04210020FFF73BFF094B2A
:10048000180000F075FEFA239B001800FFF7C2FF6A
:1004900004210020FFF760FFF5E7C046008204005A
:1004A00050000200D02C0000064880470649074A49
:1004B000074B9B1A03DD043BC858D050FBDCFFF709
:1004C00043FE000005060000D02D000000000020C3
:1004D00080000020FEE7C04600B583B000F016F8AB
:1004E00003000193074B5B680F221340019ADA4027
:1004F00013000193044B019A1A60019B180003B08A
:1005000000BDC04600800C400800002000B583B04C
:10051000324BDB6A324A134080225201934215D09B
:1005200080225201934204D880221201934211D0BA
:1005300017E080229201934204D08022D204934299
:100540000CD00EE0274B1B68019339E080231B027F
:10055000019335E0244B1B68019331E0234B019359
:100560002EE01E4BDA68E023DB001340802292006D
:10057000934218D080229200934206D8002B18D0C4
:1005800080225200934211D016E0C0229200934282
:1005900006D08022D20093420ED1154B01930EE07B
:1005A000144B01930BE0144B019308E0134B0193A0
:1005B00005E0134B019302E000230193C046C046BF
:1005C000064B1B689B0B072213400133190001984F
:1005D00000F080FC0300180003B000BD00800C4058
:1005E000003C0004040000200000002000366E01E2
:1005F000406F4001809FD500C0D8A70040B564007F
:10060000804F1200C046704780231B0218007047BD
:10061000FA239B0018007047014B1B6818007047B5
:100620000400002086B0039002910192039B1B6896
:1006300005930122029B9A401300DB431A00059B9D
:100640001A40019B01211940029B99400B001A435B
:10065000039B1A60C04606B070470000024BDB6C7B
:100660001B0EDBB218007047B081E00F00B583B0FD
:10067000214B5A69E023DB00134080229200934211
:100680001ED080229200934206D8002B26D08022D2
:10069000520093421FD027E0C0229200934204D020
:1006A000E022D20093421CD01EE0FFF7D7FF0300E8
:1006B000122B02D9114B019319E0114B019316E053
:1006C000FFF7CCFF0300122B02D90E4B01930EE073
:1006D0000D4B01930BE00D4B019308E00C4B019384
:1006E00005E00C4B019302E000230193C046019BFF
:1006F000180003B000BDC04600800C40804F1200BF
:1007000040420F0040B56400C0CF6A00C0D8A700C7
:10071000809FD500406F400110B582B06B46DC1C55
:100720000E4B180000F0D6F9030023706B4603331C
:100730001B78072B06D0092B09D1FFF7E7FE030032
:10074000019307E0FFF792FF0300019302E000230B
:100750000193C046019B180002B010BD06000C00BA
:1007600000B585B0019000230293019B354A934266
:1007700006D0354A934203D0344A934200D000E079
:10078000C046019B180000F0A5F903000393019BEC
:100790002C4A93420CD02C4A934210D02B4A9342BD
:1007A00000D013E02A4B9B6A0322134003930DE011
:1007B000274B9B6A9B0803221340039306E0244BBC
:1007C0009B6A1B09032213400393C046039B012B22
:1007D00005D014D3022B07D0032B0AD02AE0FFF751
:1007E00013FF0300029329E0FFF716FF03000293B3
:1007F00024E0FFF771FE03005B0802931EE0002374
:100800000293019B114A934203D0019B0D4A9342EC
:1008100013D10F4B9A6A019B0C498B4201D11023D3
:1008200000E01423DA40131E07D0FFF7F1FE0300A7
:10083000029302E00023029300E0C046029B1800EE
:1008400005B000BD03001C0004001E0002001A00D9
:1008500000800C4082B00190074B5B6D0122134079
:1008600006D1C046044B1B6D019A1340FAD100E03B
:10087000C04602B07047C04600800C4010B582B040
:100880006B46DC1C164B180000F024F903002370A3
:100890006B4603331B78032B0DD002DC022B05D0F3
:1008A00017E0092B10D00A2B0AD012E0FFF7B4FE94
:1008B0000300019310E0FFF7A7FE030001930BE094
:1008C000084B1B68019307E0FFF720FE030001932C
:1008D00002E000230193C046019B180002B010BD46
:1008E000073322000C00002000B587B001900A00F9
:1008F0006B4603331A7000230493019B1B0A0F22DB
:1009000013400A2B35D89A001B4BD3181B689F46FF
:100910001A4B059318E01A4B059315E0194B0593F4
:1009200012E0194B0593012304930DE0174B059337
:100930001023049308E0164B059380235B00049377
:1009400002E0144B0593C046019B1B0B1F22134072
:100950000393049B002B03D0049B1800FFF77AFF3E
:100960006B4603331A780399059B1800FFF75AFE6C
:1009700000E0C04607B000BDD82C000040800C400D
:1009800008800C4044800C4058800C4060800C4033
:1009900064800C4078800C4000B585B00190019ACD
:1009A000F8239B031340E0221203934200D179E025
:1009B000E0221203934213D88022920293423BD04A
:1009C00080229202934202D8002B23D074E080222E
:1009D000D202934223D0C022120393425DD06BE037
:1009E000D022520393422CD0D0225203934208D8F3
:1009F0008022520393422BD0B022520393423DD027
:100A00005AE0E0225203934231D08822920393426B
:100A10004DD051E0FFF77AFD030003934FE0FFF75D
:100A200075FD03000393284B9B680F221340039A24
:100A3000DA401300039342E0FFF74EFD03000393F7
:100A40003DE0224B1800FFF78BFE0300039336E0D6
:100A50001E4B1800FFF784FE030003931A4B9B6E96
:100A60000F221340039ADA401300039327E0184B38
:100A70001800FFF775FE0300039320E0144B1800E5
:100A8000FFF76EFE030003930F4B1B6F032213400F
:100A9000039ADA401300039311E0FFF73DFE0300D1
:100AA00003930CE0FFF7E2FD0300039307E0FFF779
:100AB000E5FE0300039302E000230393C046039B7B
:100AC000180005B000BDC04600800C4002001A00AE
:100AD00003001C0084B001900F236B4401221A70A4
:100AE000019B0F2213400293029B072B00D9CAE0FF
:100AF000029B9A00694BD3181B689F46684BDB6AC0
:100B0000684A134080225201934216D0802252013B
:100B1000934204D880221201934213D01CE0802219
:100B20009201934204D08022D20493420FD013E06A
:100B30000F236B4402221A7013E00F236B4403222D
:100B40001A700EE00F236B4404221A7009E00F2381
:100B50006B440B221A7004E00F236B4405221A70B9
:100B6000C04695E04E4B9B6A03221340022B08D0EF
:100B7000032B0BD0012B0ED10F236B4403221A70D1
:100B800015E00F236B4402221A7010E00F236B4410
:100B900006221A700BE0424B9A6A80235B021340D4
:100BA00004D00F236B440C221A7000E0C0466FE0A3
:100BB0003B4B9B6A0C221340082B08D00C2B0BD00C
:100BC000042B0ED10F236B4403221A7015E00F2360
:100BD0006B4402221A7010E00F236B4406221A7035
:100BE0000BE02F4B9A6A80235B03134004D00F2342
:100BF0006B440C221A7000E0C04649E0284B9B6A07
:100C000030221340102B02D0202B05D009E00F23F7
:100C10006B4403221A7009E00F236B4402221A70FE
:100C200004E00F236B4401221A70C04630E00F230A
:100C30006B4407221A702BE0194BDA6AE023DB02BF
:100C4000134080229202934212D08022D202934219
:100C500004D080225202934205D00EE00F236B4451
:100C60000A221A700EE00F236B4402221A7009E068
:100C70000F236B4403221A7004E00F236B440122FC
:100C80001A70C04604E00F236B4400221A70C0465D
:100C90000F236B441B78180004B07047042D00002C
:100CA00000800C40003C000482B0020000916B46C2
:100CB00007331A706B4607331B78002B11D06B4635
:100CC00007331B78012B0CD06B4607331B78022BA4
:100CD00007D06B4607331B78032B02D06B460733D4
:100CE0001B7809496B4607331A780120009B98400E
:100CF000030018001300DB009B189B00CB18143373
:100D00001860C04602B070470060004082B0020028
:100D100000916B4607331A706B4607331B78002B24
:100D200011D06B4607331B78012B0CD06B46073371
:100D30001B78022B07D06B4607331B78032B02D09E
:100D40006B4607331B7809496B4607331A78012035
:100D5000009B9840030018001300DB009B189B00C9
:100D6000CB1810331860C04602B0704700600040D6
:100D700030B585B00291110001930F236B44021C22
:100D80001A700E236B440A1C1A700F236B441B78D5
:100D9000002B11D00F236B441B78012B0CD00F2399
:100DA0006B441B78022B07D00F236B441B78032B5B
:100DB00002D00F236B441B780E236B441B78002B4F
:100DC00013D0019B002B08D0029A0F236B441B7891
:100DD00011001800FFF79AFF07E0029A0F236B44F7
:100DE0001B7811001800FFF75FFF029B072B25D827
:100DF000364C0F236B441A7834480F236B44197810
:100E00000B00DB005B189B00C31804331B680299BE
:100E100089000F2088400100C9430B400E2169441E
:100E20000878029989008840010019431300DB000B
:100E30009B189B00E318043319602AE0234C0F230E
:100E40006B441A7821480F236B4419780B00DB00A0
:100E50005B189B00C31808331B6802991C48844622
:100E6000614489000F2088400100C9430B400E21D6
:100E7000694408780299164DAC466144890088405F
:100E8000010019431300DB009B189B00E318083393
:100E900019600E236B441B78002B13D1019B002B90
:100EA00008D0029A0F236B441B7811001800FFF73B
:100EB0002DFF07E0029A0F236B441B7811001800E6
:100EC000FFF7F2FEC04605B030BDC04600600040EE
:100ED000F8FFFF3F002243088B4274D303098B4283
:100EE0005FD3030A8B4244D3030B8B4228D3030CFA
:100EF0008B420DD3FF22090212BA030C8B4202D39C
:100F00001212090265D0030B8B4219D300E0090AC3
:100F1000C30B8B4201D3CB03C01A5241830B8B42CC
:100F200001D38B03C01A5241430B8B4201D34B03B5
:100F3000C01A5241030B8B4201D30B03C01A52411A
:100F4000C30A8B4201D3CB02C01A5241830A8B429F
:100F500001D38B02C01A5241430A8B4201D34B0288
:100F6000C01A5241030A8B4201D30B02C01A5241EC
:100F7000CDD2C3098B4201D3CB01C01A52418309A0
:100F80008B4201D38B01C01A524143098B4201D3DA
:100F90004B01C01A524103098B4201D30B01C01A05
:100FA0005241C3088B4201D3CB00C01A524183087F
:100FB0008B4201D38B00C01A524143088B4201D3AC
:100FC0004B00C01A5241411A00D20146524110460C
:100FD0007047FFE701B5002000F006F802BDC046EB
:100FE0000029F7D076E770477047C04610B501007A
:100FF00000230022002000F0D7F810BD084B10B5E8
:101000000400002B02D0002100F044F9054B1868C1
:10101000836A002B00D09847200001F061FDC04694
:1010200095120000242D000070B5094B094CE41AFC
:10103000A41009D0084AA518AD00ED182B68013C92
:101040009847043D002CF9D101F03CFE70BDC0462C
:10105000780000207C000020FFFFFF3F70B50D4EA0
:101060000D4DAD1BAD1006D00024A300F358013484
:101070009847A542F9D101F01FFE084E084DAD1B5F
:10108000AD1006D00024A300F35801349847A542C0
:10109000F9D170BD7400002074000020740000209D
:1010A00078000020F0B5830746D0541E002A42D0B5
:1010B000CEB20200032502E01A00013C3BD3531CD0
:1010C00016702B42F8D1032C2DD9FF220A401502AD
:1010D00015432A0415430F2C16D92700103F3F094A
:1010E0003E01B4461E001A00103666441560556075
:1010F0009560D5601032B242F8D10F2201373F011E
:10110000DB191440032C0ED9261FB608B700BC46C5
:101110001A001F1D674420C2BA42FCD103220136C7
:10112000B6009B191440002C05D0C9B21C191970C7
:1011300001339C42FBD1F0BD14000300C3E7C0465D
:101140000EB410B5040083B0002802D08369002BD0
:101150000BD006AB059AA1682000019300F02EFB8E
:1011600003B010BC08BC03B0184700F019FAF0E750
:101170000FB410B50B4B82B01C68002C02D0A369D1
:10118000002B0BD005AB049AA1682000019300F05E
:1011900015FB02B010BC08BC04B01847200000F0DA
:1011A000FFF9EFE710000020F0B54746CE4680B5C6
:1011B000344D83B02C6806000F0091469846002CF1
:1011C0003ED063681F2B1BDD2F4B002B46D08C209D
:1011D00000E000BF041E41D02A680023026088227C
:1011E000436028608350002E3BD1873A00200233B1
:1011F0009B0062601F5103B00CBC90469946F0BD45
:101200005A1C002EF2D08822A058002823D0783211
:10121000855849469A0082181160012199400D4372
:1012200089468021490045508025414651515A1C2C
:10123000022EDBD14E46843541590E434651D5E747
:10124000124C134B2C60002BBBD01B6801938823DE
:10125000019AE250B5E70C4B002B02D1012040422D
:10126000C9E78420400000E000BF0028F6D08022BB
:10127000002352008350043283508833E05000250D
:101280006368C6E728010020000000009C000020E1
:1012900000000000F0B5DE4657464E464546E0B534
:1012A000414B85B01F6803908B46002F39D09A467A
:1012B0008823FE587B685C1E56D49B0098463300FA
:1012C0004344B146019300255E460AE04B46002B9D
:1012D00004D0019B5B19DB6FB34204D0043D013C99
:1012E00040D3002EF2D143467968EB18FB18013940
:1012F0005A68A14234D000215960002AEED07B68A0
:101300009B464B46002B13D190477B685B4503D12E
:1013100053461B68BB42E1D0234BB3461F68002FE6
:10132000C5D105B03CBC90469946A246AB46F0BD3F
:10133000012380204946A3404000095802911942E8
:10134000E2D00198291F415848468C468221490025
:1013500041580291194223D1614603989047D4E73E
:101360007C60CAE7B3464E46104B002BD9D07A6852
:101370003B68002A11D1002B0FD052461360002E7B
:1013800002D0300000E000BF380000E000BF53464C
:101390001F68002F00D08BE7C3E7BA461F00F8E7AD
:1013A00060469047B1E7C0462801002000000000D9
:1013B0000020704710B5024900F03CF910BDC0464E
:1013C000A92200000020704770B568244A1E5443CB
:1013D0000E002100743100F053F9051E09D00023DE
:1013E0002200036046600C30A86068320021FFF7DD
:1013F00059FE280070BDC0461E4B70B51D68060022
:10140000AB69002B27D048356B68AC68013B03D52E
:101410001CE06834013B19D30C21625E002AF8D12C
:1014200000252000144B656625606560A560E360BB
:1014300025616561A561082200215C30FFF732FE5D
:101440006563A563A564E564200070BD2868002875
:1014500005D00500D8E7280000F010F8D3E70421F4
:101460003000FFF7B1FF28600028F2D10C230024E0
:101470003360E9E7242D00000100FFFFF0B5D646F8
:101480004F464646384BC0B5836200238364C3642D
:101490000365364B82B01B6805000193984260D00B
:1014A0002800FFF7A9FF68602800FFF7A5FFA860E4
:1014B0002800FFF7A1FF6E680024E86004233000D5
:1014C000746634607460B460F36034617461B461F4
:1014D000082200215C30FFF7E5FD254B254F9A4699
:1014E0007362254B37639946B362244B3662F362CD
:1014F000AE6898463000224B746634607460B46005
:10150000F36034617461B461082200215C30FFF73C
:10151000C9FD534673624B46B36243463763F36279
:101520003662EE68174B3000F360746634607460A6
:10153000B46034617461B461082200215C30FFF74B
:10154000B1FD534673624B46B3624346F3620123D7
:1015500036623763AB6102B01CBC90469946A24626
:10156000F0BD012383619BE7B5130000242D00002B
:10157000891E00001D1F0000B51E0000F11E0000A6
:10158000090001001200020010B5034B034918685E
:1015900000F050F810BDC046242D0000A922000024
:1015A000836910B5002B01D1FFF768FF10BDC0465D
:1015B0007047C0467047C0467047C0467047C04637
:1015C00010B5034B0349186800F012F810BDC0466F
:1015D00010000020B113000010B5034B0349186838
:1015E00000F006F810BDC04610000020C513000032
:1015F000F0B5C646483000B58846070000260028EA
:1016000013D07B68BC685D1E0CD4A389012B06D95E
:101610000E22A35E013302D02000C0470643683487
:10162000013DF2D23F68002FEBD1300004BC904660
:10163000F0BDC046F8B54746CE4680B507004837EE
:10164000804689460026002F14D07B68BC685D1E4A
:101650000DD4A389012B07D90E22A35E013303D039
:1016600021004046C84706436834013DF1D23F6837
:10167000002FEAD130000CBC90469946F8BDC04618
:10168000F8B50323CD1C9D43083506000C2D2AD246
:101690000C25A94229D8300001F01EF92A4F3A68DA
:1016A000002A0AD013685B1B04D440E023685B1B4C
:1016B0001FD522005468002CF8D17B68002B3DD048
:1016C0002900300000F0CEFB431C29D00323C41CAA
:1016D0009C43A04205D0211A300000F0C3FB431CFC
:1016E0001ED025600AE0002DD3DA0C2300203360E1
:1016F000F8BD0B2B0FD92360E4182560300001F0F2
:10170000EDF8200007220B30231D9043C31AEFD0C1
:101710005A42E250ECE7A2420DD063685360EDE715
:101720000C233000336001F0D9F80020E0E714000A
:101730000B2BE0D854683C601400DFE70021300038
:1017400000F090FB7860BBE72C010020936810B597
:10175000013B9360002B05DB1368581C10600800E8
:10176000197010BD9469A34201DB0A29F4D100F07D
:10177000DBFBF6E7F8B506000F00002B0DD01400D8
:10178000D51802E00134AC4207D021783A0030008D
:10179000FFF7DCFF431CF5D1F8BD0020FCE7C04695
:1017A000936810B51400002B02D10020536010BDC7
:1017B00000F0BCFD0023A3606360F8E7F0B5DE46EF
:1017C000454657464E46E0B59FB002908B46140002
:1017D0001D00002804D083690393002B00D1BDE0D5
:1017E0009F4B9B4500D1BFE09E4B9B4500D1CDE078
:1017F0009D4B9B4500D12FE15B469B891B0700D485
:10180000BAE05B461B69002B00D1B5E0002306AEB1
:101810007361203373761033B376944B05959846F5
:10182000012399462378002B00D18BE02500252B3E
:1018300003D117E0252B00D1E4E001352B78002BF4
:10184000F8D12F1B7ED03B00220059460298FFF7AB
:1018500091FF431C76D073699C462B78674477616F
:10186000002B6FD0012200235242726044326C1C64
:101870003360F360B360B354B36507E04346C01A06
:101880004B4683402C003268134333602178052295
:10189000404600F04FFF651C2F000028EED1336852
:1018A000DA0602D543222021B1541A0702D5432279
:1018B0002B21B15421782A296CD00A00303A270014
:1018C000092A0FD8F06801E02C00013583001B18AD
:1018D00029785B0098180A00303A2F00092AF3D9BA
:1018E000A51CF0602E2960D0614C0322200000F07E
:1018F00021FF002800D171E04023001B83403268A3
:10190000297813435B48062233606C1C317600F063
:1019100011FF00286CD0584B002B00D176E005ABAE
:1019200000935A46554B3100029800E000BF8246B2
:101930005346013306D07369534473612378002BF7
:1019400000D073E75B469B895B061CD470691FB0AF
:101950003CBC90469946A246AB46F0BDFFF720FE40
:101960003F4B9B4500D03FE7029B5B689B465B4635
:101970009B891B0700D544E75946029800F05EFB9F
:10198000002800D142E701204042E0E7029B9B682B
:101990009B4631E7059A111D12680591002A3CDB30
:1019A000F2606178A51C2E299ED179782A293AD136
:1019B000059BB9781A1D1B68FD1C059273600237E0
:1019C000002B00DB90E70123294C5B42032220001F
:1019D000736000F0AFFE002800D08DE72C003D00C2
:1019E000297806222348317600F0A4FE002892D1FF
:1019F00005AB00935A46214B3100029800F0E0F805
:101A0000824695E72F1B00D12CE71CE70722059B98
:101A100007339343083305938DE75242F260022265
:101A200013433360BDE70A000023303A736000209F
:101A3000092A01D90DE03D0083001B1869785B007D
:101A400098180A00303A6F1C092AF4D902357060E0
:101A50004AE72F00013547E7029BDB689B46CBE650
:101A6000682D0000482D0000282D0000882D000062
:101A7000902D0000942D000000000000751700005C
:101A800010B504001300034A10680A002100FFF794
:101A900095FE10BD10000020F0B54F464646D646D4
:101AA000C0B51F00089B914698468A680B690600DE
:101AB0000C00934200DA13004A4613604322A25CF2
:101AC000002A02D04A460133136023689A0660D583
:101AD0004B461B6806209A1C4B461A602368190067
:101AE00018421FD1E16800258A1A19218A46190077
:101AF000A244002A07DC15E04B46E2681B6801356A
:101B0000D31AAB420DDD0123524639003000C047E5
:101B1000431CF1D1012040421CBC90469946A2468C
:101B2000F0BD21684323E35C5A1E93418A060AD51F
:101B30003020E1184331087045215A1C615CA2181D
:101B40004332023311702200390043323000C04763
:101B5000431CDFD0E36821689C464B461D68062382
:101B6000A26820690B40042B19D0824221DD00239A
:101B70009946121A91441A34002502E001354D4568
:101B800017D00123220039003000C047431CF5D193
:101B9000C0E706221A420ED14A461268A2E76346FF
:101BA000591BCB43DB170B4099468242E1DC0029ED
:101BB000E1DC0020B0E74323E35C5A1E9341C2E717
:101BC000F0B545469846432357464E46DE469A466C
:101BD000E0B50B7E85B0170006000C000E9A8A4413
:101BE0006E2B52D00FD8632B00D1E3E000D9CAE0AE
:101BF000002B58D0582B00D0F9E045216354974969
:101C000023688B4613E0732B00D1E1E000D985E017
:101C10006F2B00D1F2E0702B00D0E8E020230968A0
:101C20000B4323604521782060548D498B46116811
:101C30000D1D08681560190603D4590601D5000466
:101C4000000CDA0702D5202213432360002800D0BD
:101C500075E0202322689A43226013004322A05497
:101C60006268A260002A00DA84E004218B432360CA
:101C700010239946002A00D07EE055464B46082B9B
:101C800052D053465B1B236110E0636909689C4690
:101C900013681D1D15601B686246080602D44906BC
:101CA00000D5C1E01A60002355462361434603AACC
:101CB000009321003B003000FFF7EEFE431C20D0D4
:101CC00023692A0039003000C047431C19D022681C
:101CD0000398E36892071DD51A1A002A1ADD192302
:101CE00099460025A14405E0E368039801351A1AD6
:101CF000AA420FDD01234A4639003000C047431C89
:101D0000F2D10120404205B03CBC90469946A24623
:101D1000AB46F0BD9842F6DA1800F4E7752B6DD0AB
:101D2000782B64D10B687DE72368DB07A9D563684E
:101D300022699342A5DC3023013D2B70A1E71023DB
:101D4000994643230022E2546268A260002A2EDBF7
:101D50002168042399432160002800D18AE7554671
:101D60004946FFF73DF95B465B5C013D2B7000285F
:101D7000F6D183E7102399465B4625001A78422363
:101D80004235E2547AE7642B01D0692B2FD11368D6
:101D90002168181D10600D0601D44D0646D4186840
:101DA000002846DB2D4B9B460A239946CCE70028AA
:101DB000D5D1E1E713682500191D11601A68422387
:101DC000E254413B4235236143230022E2546DE754
:101DD0001368191D11601D6862680021280000F059
:101DE000A9FC002837D0401B60602061ECE742224C
:101DF0002500A354012342352361E5E710682168DB
:101E0000051DAC460D0601D4490609D46146116092
:101E100000686F2B1AD0114B9B460A23994690E716
:101E2000614600881160F4E71A803CE70020185EE4
:101E3000B6E743232D22E254084B62689B460A23EF
:101E40004042A2609946002A83DA88E7034B9B460A
:101E50000823994675E760682061B5E79C2D00006E
:101E6000B02D0000002370B5064C0500080023606B
:101E700000F020FE431C00D070BD2368002BFBD077
:101E80002B60F9E73C01002070B50C000E25495F7E
:101E900000F0A4FD002803DB636D1B18636570BDB3
:101EA000A389024A1340A381F9E7C046FFEFFFFF71
:101EB00000207047F8B516001F000C228B5E0C0046
:101EC00005000E22895EDA0507D50022022300F004
:101ED000ABFB0C22A35E0E22A15E044A2800134035
:101EE000A38132003B0000F095F8F8BDFFEFFFFF43
:101EF00070B50C000E25495F00F096FB431C06D020
:101F00008023A2895B011343A381606570BDA3890F
:101F1000014A1340A381F9E7FFEFFFFF10B50E233D
:101F2000C95E00F011F910BDF8B505000E001400EF
:101F3000002802D08369002B29D02D4B9C422BD046
:101F40002C4B9C4246D02C4B9C424ED0A369A360A4
:101F5000A3891B0726D52369002B23D0FF22F7B2C4
:101F6000616916402268D31A99422ADD0133A168BB
:101F70000139A160511C2160177062699A422BD00F
:101F8000A389DB0701D50A2E26D03000F8BDFFF764
:101F900007FB174B9C42D3D16C68A369A360A3894C
:101FA0001B07D8D42100280000F048F8002819D1D8
:101FB000FF222369F7B2616916402268D31A994259
:101FC000D4DC2100280000F06FF900280AD1226833
:101FD0000123CCE7AC68B9E72100280000F064F9E0
:101FE0000028D2D001267642CFE7EC68AEE7C046A3
:101FF000682D0000482D0000282D000010B5044B6E
:102000000A001B6801001800FFF78EFF10BDC046D4
:102010001000002070B50500080011000022064CD9
:1020200022601A0000F054FD431C00D070BD2368EC
:10203000002BFBD02B60F9E73C0100203E4B70B534
:102040001D6806000C00002D02D0AB69002B1BD0D0
:102050003A4B9C421ED03A4B9C424CD0394B9C424E
:1020600060D00C23E25E93B2190719D521690029CB
:1020700021D0DA072ED50023A360636900205B42DC
:10208000A36100292ED070BD2800FFF789FA2B4BE1
:102090009C42E0D16C680C23E25E93B21907E5D450
:1020A000D90641D55B0728D4216908231343A381AE
:1020B0009BB20029DDD1A0228020920080001A402E
:1020C0008242D6D02100300000F0ECFAA3892169C9
:1020D000DA07D0D400229B0700D46269A2600020F6
:1020E0000029D0D10C22A35E1A06CCD5402213437E
:1020F000A3810138C7E7AC68B3E7616B00290AD058
:1021000023004433994204D0300000F0E9FB0C2353
:10211000E25E0023636324239A4300232169636002
:102120002160C2E7EC689CE709233360402301206B
:102130001A43A2814042A6E710000020682D00004B
:10214000482D0000282D0000002370B5064C050026
:102150000800236000F086FC431C00D070BD23689B
:10216000002BFBD02B60F9E73C010020F0B5C64600
:1021700000B58B8980460C001A073DD44A68002AB6
:102180005ADDE56A002D5AD04246414616680022C3
:102190000A60216ADA0400D57DE00123002240466E
:1021A000A847431C51D0A389E56A216A5B0706D57D
:1021B0006368C01A636B002B01D0236CC01A002324
:1021C00002004046A847431C4BD0002363602369AC
:1021D0002360A389DB0456D44346616B1E6000294B
:1021E0002DD023004433994202D0404600F078FBC2
:1021F00000230020636323E00E69002E1FD00A68CD
:102200000E60951B00229B071DD0A260002D04DCF0
:1022100015E036182D1A002D11DD2B003200216A31
:102220004046A76AB8470028F3DC40220120A38972
:1022300040421343A38103E00A6C002AA1DC002082
:1022400004BC9046F0BD4A69DFE743461B68002B9B
:10225000A9D01D2B01D0162B1FD1434600201E6094
:10226000EEE7434619680C23E55E1D290DD80D4A9B
:102270000123CA40934308D1636023692360EB04C0
:10228000AAD50029A8D16065A6E7402301201D43F7
:10229000A5814042D4E7606D88E74022A3891343BB
:1022A000A381CDE7010040200B6970B505000C004B
:1022B000002B16D0002802D08369002B15D00E4BBE
:1022C0009C4210D00D4B9C4212D00D4B9C4211D021
:1022D0000C22A35E002B04D021002800FFF746FF4C
:1022E00000E0002070BD6C68F2E7FFF759F9E6E7FF
:1022F000AC68EDE7EC68EBE7682D0000482D0000C6
:10230000282D000010B5011E04D0054B1868FFF7FA
:10231000CBFF10BD034B04491868FFF78BF9F8E7B2
:1023200010000020242D0000A9220000F0B5454631
:10233000DE4657464E46E0B5936883B000900D00E8
:102340009046002B2DD08B891A0732D50A69002AB6
:102350002FD0424616689A0737D5AB6A00279A46AF
:10236000AD4B00249946296A002C16D023004C4519
:1023700000D9A94B3A000098D047002800DC8FE034
:1023800043469B683F18241A181A4346986008D0A1
:10239000AB6A296A9A46002CE8D137687468083617
:1023A000E2E7002003B03CBC90469946A246AB460B
:1023B000F0BD29000098FFF741FE002800D028E179
:1023C0004246AB8916689A07C7D4DA0770D4002250
:1023D00091468022920000279346AC682868002F1F
:1023E00053D05A46134200D1A8E0A246BC4200D9BD
:1023F000D7E09022D20013422ED02969441AA44675
:102400006869019442001218D00F8218781C52108B
:1024100060449246904201D9824602005B0500D496
:10242000D0E011000098FFF72BF9041E00D1EAE07C
:10243000019A296900F0BEF9AB89784A13408022DD
:102440001343AB815246019B2C61E018BA463C0015
:10245000D31A28606A61AB605246494600F0EEF933
:10246000AB681C1BAC603C0000272B6853442B60FE
:1024700043469B68A1441C1B43469C6000D190E7E7
:10248000AC682868AB89002FABD132687768914679
:102490000836A4E729000098FFF706FF00282DD092
:1024A0000C22AB5E402201201343AB81404279E70E
:1024B000002399469A46330000204E46002799464D
:1024C00025E000282FD0B346BE4200D9BB4628687D
:1024D0002A696B69904203D9AA689C18A34563DCFA
:1024E0005B4500DD82E0AC6A5246296A0098A0474D
:1024F000041ED5DD361B0120002ECBD043469B6841
:10250000A2443F1B1C1B43469C6000D149E7002F9F
:10251000D7D14B461B689A464B465F6808239C46BA
:10252000E144002FF5D03A000A21504600F002F9AC
:10253000002859D053460130C61AC4E72B6983429C
:1025400017D36B699A46BB4213D8354B38009F426C
:1025500000D93448514600F0C5FA53464A46434331
:10256000296A0098AC6AA047002899DD04003F1B47
:102570007EE7BC4200D93C002200494600F05EF9EB
:10258000AB682A681B1B1219AB602A60002BEED1C6
:1025900029000098FFF788FE002800D080E73F1B45
:1025A00066E73C00BA4657E75146220000F046F97C
:1025B0002B6829001B192B600098FFF775FE002877
:1025C00098D06DE7009800F0E1F9041E00D039E7DB
:1025D000009C2969200000F083F98022AB89934395
:1025E000743A1BB222605DE77E1C6CE75A46514686
:1025F00000F024F95A46AB685C469B1AAB602B6826
:102600005B442B6076E70C23009A13600C22AB5ED0
:1026100048E701204042C5E600FCFF7F7FFBFFFF4B
:10262000FEFFFF7FFFFFFF7F70B505000800110070
:102630000022064C22601A0000F02CFA431C00D045
:1026400070BD2368002BFBD02B60F9E73C01002014
:1026500070B50C001D000E23C95E96B0160000294F
:102660000DDA00232B60A3891B0605D48023DB0031
:102670003360002016B070BD40233360F9E76A462E
:1026800000F0C0F90028ECDBF022019B120213409D
:10269000034A944663445A4253412B60E6E7C046DE
:1026A00000E0FFFF70B58B8982B006000C009B072D
:1026B00007D523004733236023610123636102B000
:1026C00070BD01AB6A46FFF7C3FF009905003000FB
:1026D000FEF7D6FF00281ED08022154BB362A389D7
:1026E00020601343009A1BB26261019AA3812061AA
:1026F000002A02D12B43A381E1E70E23E15E3000E3
:1027000000F094F9002810D00322A38993430122FA
:1027100013431BB2EEE70C22A35E9A05CFD403222B
:10272000934302221343A381C3E70C22A35EE1E794
:10273000B513000070B5CCB2830734D0531E002A05
:102740001BD00278A24219D0032504E0013B14D328
:102750000278A24212D001302842F7D1032B0ED8C2
:10276000002B0AD00278A24208D0C31802E00278F7
:10277000A24203D001308342F9D1002070BDFF2274
:102780000D062D0C114029430D04084E0D4302681F
:1027900007496A40511891433142E3D1043B043068
:1027A000032BF4D8DCE71300D8E7C0468080808094
:1027B000FFFEFEFEF0B50F2A37D90D0005430C00D1
:1027C0000300AD0735D11500103D2D092E01361837
:1027D000103627681F6067685F60A7689F60E768BA
:1027E0001034DF601033B342F3D10F2401352D01D3
:1027F000491914404519032C1DD90023CE58EE5019
:102800000433E61A032EF9D80323043CA408013448
:10281000A4001A402D190919002A05D00023CC5C08
:10282000EC5401339342FAD1F0BD0500002AF5D1F2
:10283000FAE70500F2E72200F8E7C046F0B5884263
:102840000AD98B18984207D2531E002A03D0CA5CBB
:10285000C254013BFBD2F0BD0F2A09D80500002A63
:10286000F9D00023CC5CEC5401339342FAD1F2E767
:102870000D0005430C000300AD0729D11500103DE4
:102880002D092F013F18103726681E6066685E60AC
:10289000A6689E60E6681034DE601033BB42F3D158
:1028A0000F2401352D01491914404519032C11D964
:1028B0000023CE58EE500433E61A032EF9D8032332
:1028C000043CA4080134A4002D1909191A40C6E7D4
:1028D0000500C6E72200C2E77047C0467047C04601
:1028E00070B50500002915D00C1F2368002B27DBCD
:1028F0002800FFF7F1FF244B1A68002A05D0A242F6
:102900000CD92168601882421CD0626028001C60CB
:10291000FFF7E4FF70BDA34203D81A005368002BF1
:10292000F9D111685018A04219D012D82168601846
:10293000834221D0636054602800FFF7CFFFE9E7AE
:10294000E418D5E7106852688446614421606260EB
:10295000DCE70C2328002B60FFF7C0FFDAE72068D4
:102960000918501811608342E6D118685B688446E4
:10297000614411605360DFE718685B688446614416
:10298000216063605460D7E72C010020F8B5070090
:102990000C001500002917D0002A1AD000F058F8B2
:1029A0002600A84201D33000F8BD29003800FEF708
:1029B00067FE061EF7D021002A00FFF7FBFE21006C
:1029C0003800FFF78DFFEEE71100FEF759FE060015
:1029D000E9E7FFF785FF0026E5E7C04670B505008B
:1029E000080011000022064C22601A0000F05AF87C
:1029F000431C00D070BD2368002BFBD02B60F9E78F
:102A00003C010020002370B5074C050008001100B0
:102A1000236000F02FF8431C00D070BD2368002B0A
:102A2000FBD02B60F9E7C0463C010020002370B5C5
:102A3000064C05000800236000F024F8431C00D079
:102A400070BD2368002BFBD02B60F9E73C01002010
:102A50000B1F1B68181F002B00DB70470B58C0189A
:102A6000FBE7C04658220120014B40421A607047E4
:102A70003C01002058220120014B40421A6070475F
:102A80003C0100205822024B00201A607047C046CB
:102A90003C01002058220120014B40421A6070473F
:102AA0003C01002058220120014B40421A6070472F
:102AB0003C010020044A1368002B00D1034B181876
:102AC000106018007047C04634010020400100200B
:102AD00058220120014B40421A6070473C010020FF
:102AE000FEE7C04603460B437FD4002243088B42D7
:102AF00074D303098B425FD3030A8B4244D3030B85
:102B00008B4228D3030C8B420DD3FF22090212BA49
:102B1000030C8B4202D31212090265D0030B8B42C5
:102B200019D300E0090AC30B8B4201D3CB03C01AAF
:102B30005241830B8B4201D38B03C01A5241430B8A
:102B40008B4201D34B03C01A5241030B8B4201D37A
:102B50000B03C01A5241C30A8B4201D3CB02C01AE5
:102B60005241830A8B4201D38B02C01A5241430A5D
:102B70008B4201D34B02C01A5241030A8B4201D34C
:102B80000B02C01A5241CDD2C3098B4201D3CB01F3
:102B9000C01A524183098B4201D38B01C01A5241A2
:102BA00043098B4201D34B01C01A524103098B42A6
:102BB00001D30B01C01A5241C3088B4201D3CB0091
:102BC000C01A524183088B4201D38B00C01A524174
:102BD00043088B4201D34B00C01A5241411A00D224
:102BE00001465241104670475DE0CA0F00D049428D
:102BF000031000D34042534000229C4603098B42FD
:102C00002DD3030A8B4212D3FC22890112BA030A84
:102C10008B420CD3890192118B4208D38901921106
:102C20008B4204D389013AD0921100E08909C3098B
:102C30008B4201D3CB01C01A524183098B4201D38D
:102C40008B01C01A524143098B4201D34B01C01A78
:102C5000524103098B4201D30B01C01A5241C308F0
:102C60008B4201D3CB00C01A524183088B4201D35F
:102C70008B00C01A5241D9D243088B4201D34B007A
:102C8000C01A5241411A00D20146634652415B10BC
:102C9000104601D34042002B00D54942704763469D
:102CA0005B1000D3404201B50020FEF79DF902BD44
:102CB0000029F8D016E77047F8B5C046F8BC08BC44
:102CC0009E467047F8B5C046F8BC08BC9E467047A3
:102CD000746573740000000072090000160900009A
:102CE0001C090000100900007209000072090000B0
:102CF000220900002C0900003609000072090000BA
:102D000042090000860C0000FC0A0000640B000071
:102D1000B00B0000FC0B0000860C00002E0C000025
:102D2000380C00001400002000000000000000002B
:102D30000000000000000000000000000000000093
:102D40000000000000000000000000000000000083
:102D50000000000000000000000000000000000073
:102D60000000000000000000000000000000000063
:102D70000000000000000000000000000000000053
:102D80000000000000000000232D302B2000000078
:102D9000686C4C0065666745464700003031323349
:102DA0003435363738394142434445460000000047
:102DB00030313233343536373839616263646566B1
:082DC00000000000000000000B
:082DC80080D3FF7F0100000031
:102DD00000366E0100800000809FD500006CDC0290
:102DE0001400002000000000682D0000482D0000A5
:102DF000282D00000000000000000000000000007E
:102E000000000000000000000000000000000000C2
:102E100000000000000000000000000000000000B2
:102E200000000000000000000000000000000000A2
:102E30000000000000000000000000000000000092
:102E4000000000000D010000E10000000000000093
:04000003000004A94C
:00000001FF
